:020000040800F2
:10000000E805002001010008530F0008350E000824
:10001000510F0008BD010008D915000800000000BC
:100020000000000000000000000000003110000887
:10003000BF01000800000000550F0008331500083C
:100040001B0100081B0100081B0100081B01000820
:100050001B0100081B0100081B0100081B01000810
:100060001B0100081B0100081B0100081B01000800
:100070001B0100081B0100081B0100081B010008F0
:100080001B0100081B0100081B0100081B010008E0
:100090001B0100081B0100081B0100081B010008D0
:1000A0001B0100081B0100081B0100081B010008C0
:1000B0001B0100081B0100081B0100081B010008B0
:1000C0001B0100081B0100081B0100081B010008A0
:1000D0001B0100081B0100081B0100081B01000890
:1000E0001B0100081B0100081B010008DFF80CD0F1
:1000F00000F052F800480047CD190008E80500203C
:100100000648804706480047FEE7FEE7FEE7FEE7B1
:10011000FEE7FEE7FEE7FEE7FEE7FEE791150008D3
:10012000ED00000840EA01039B0703D009E008C97D
:10013000121F08C0042AFAD203E011F8013B00F8AC
:10014000013B521EF9D27047D2B201E000F8012BF8
:10015000491EFBD270470022F6E710B513460A4647
:1001600004461946FFF7F0FF204610BD30B50B4698
:10017000014600202022012409E021FA02F59D42D7
:1001800005D303FA02F5491B04FA02F52844151EAB
:10019000A2F10102F1DC30BD064C074D06E0E0683B
:1001A00040F0010394E8070098471034AC42F6D3BE
:1001B000FFF7A0FF901C0008B01C0008FEE7704786
:1001C00070B5044600F0FEF80546601C02D00448F5
:1001D0000078044400F0F6F8401BA042FAD370BD4A
:1001E000140000202DE9F84FDFF8A491002409F154
:1001F000040A0AF1040B23464FF00F080BF1040E1A
:10020000BEE00127A7403A40BA4272D1DFF884C16C
:100210004D68A5EB0C0665452BD00DDC032D34D0C5
:1002200005DC35B3012D19D0022D2FD11BE0112D86
:1002300016D0122D2AD119E0B6F5881F19D006DC88
:10024000B6F5803F15D0B6F5801F1FD111E0B6F589
:10025000001F0ED0B6F5041F18D10AE0CB6815E0D8
:10026000CB681B1D12E0CB6808330FE0CB680C3362
:100270000CE08B682BB1012B4FF0080303D04761D2
:1002800004E0042302E0076100E00023FF2A01D814
:10029000064601E000F104064FEA840501D9A5F104
:1002A0002005376808FA05FC27EA0C0703FA05F56C
:1002B00047EA050737604D68ED0060D5364DAE69F9
:1002C00046F00106AE61AD6924F0030605F00105B4
:1002D0000095324D7719BE68A5072D0F08FA05FC69
:1002E00026EA0C06DFF8B8C0604503D14FF0000CD9
:1002F00017E044E0DFF8ACC0604502D14FF0010CDC
:100300000FE0DFF8A4C0604502D14FF0020C08E016
:10031000DFF898C0604502D14FF0030C01E04FF0C8
:10032000040C0CFA05FC4CEA060CC7F808C04D6832
:10033000D9F80060ED034D4601D5164300E0964321
:100340002E604D68DAF80060AD03554601D51643BE
:1003500000E096432E604D68DBF80060ED025D46DC
:1003600001D5164300E096432E604D68DEF800602C
:10037000AD02754601D5164300E096432E60641C1D
:100380000A6832FA04F57FF43CAFBDE8F88F00004C
:100390000004014000001110001002400000014064
:1003A00000080140000C0140001001400014014011
:1003B0008068084000D0012070470AB10161704791
:1003C0000904FBE701488068704700001400002022
:1003D000024881680278114481607047140000204F
:1003E000074810B5016841F010010160032000F0DA
:1003F00067F8002000F006F800F024F8002010BD97
:100400000020024070B50D4D04464FF47A712878F3
:10041000B1FBF0F00A490968B1FBF0F000F0F6FC1E
:1004200048B9102C07D200222146501E00F028F8AF
:1004300000206C6070BD012070BD00001400002021
:10044000200000200C4808B5816941F0010181615C
:10045000816901F001010091C16941F08051C161E0
:10046000C069064900F080500090486820F0E060C4
:1004700040F00070486008BD0010024000000140DC
:10048000F0B40E4B1B68C3F30223C3F10704042C22
:1004900000D904241D1D072D01D2002300E0DB1E1E
:1004A000012606FA04F56D1E0D409D409E40761E05
:1004B000164045EA0601F0BC01F0B4B80CED00E0CE
:1004C000064A00F0070110684FF6FF03184040EAA3
:1004D0000120034908431060704700000CED00E064
:1004E0000000FA052DE9F0470D46040067D0DFF85B
:1004F0001881D8F8000000F00700A8420CD2D8F804
:10050000001021F007012943C8F80010D8F80000B6
:1005100000F00700A84252D120683C4E810712D556
:10052000400703D5706840F4E060706020780007F1
:1005300003D5706840F4605070607068A16820F066
:10054000F000084370602078C00727D06068012859
:1005500010D03168022810D0890700292FDA71687D
:1005600021F0030101437160FFF72CFF074641F2C0
:1005700088390CE031688903EFE78901EDE7FFF77F
:1005800021FFC11B494502D90320BDE8F0877068EF
:10059000616800F00C00B0EB810FF0D1D8F80010CA
:1005A000404601F00701A9420BD9016821F007017B
:1005B00029430160006800F00700A84201D0012033
:1005C000E3E72078400705D57068E16820F4E06033
:1005D000084370602078000706D57068216920F410
:1005E000605040EAC100706000F018F87168084A75
:1005F000C1F30311515CC840064908600648006811
:10060000FFF700FF0020C0E700200240001002407A
:10061000681C0008200000201800002012A085B0EF
:100620000FC88DE80F0014A0144B0068049059689F
:10063000134801F00C02042A10D0082A0ED1C1F38D
:100640008342C9031DF802000AD5596804AAC1F300
:100650004041515C0A4A5043B0FBF1F005B070478D
:1006600008494843FAE700000203040506070809A1
:100670000A0B0C0D0E0F10100102000000100240BA
:1006800000127A0000093D002DE9F84F04006FD0F8
:100690002078BE4DC00747D06868C0F381000128AC
:1006A00007D06868C0F38100022809D16868C003D8
:1006B00006D52868800337D560680028E7D033E086
:1006C0006068B0F5803F0BD010B1B0F5A02F11D00D
:1006D000286820F480302860286820F4802002E018
:1006E000286840F480302860606888B1FFF76AFEAF
:1006F000064609E0286840F480202860F0E7FFF70C
:1007000061FE801B642873D828688003F7D50BE04E
:10071000FFF758FE064604E0FFF754FE801B6428EE
:10072000F1D828688003F7D42078DFF86482800746
:100730004FF0010A4FF0000939D5686810F00C0F2E
:1007400007D06868C0F38100022809D16868C00337
:1007500006D42868800714D52069012808D110E044
:100760002069B0B1C8F800A0FFF72CFE064605E0EE
:1007700007E1FFF727FE801B0228C4D828688007FE
:10078000F7D52868616920F0F80040EAC1002860C8
:100790000DE0C8F80090FFF715FE064604E0FFF7ED
:1007A00011FE801B022823D828688007F7D4207800
:1007B00000072CD57748A169D9B1C0F800A0FFF790
:1007C00001FE064604E0FFF7FDFD801B02280FD85E
:1007D000686A8007F7D570484FF4FA510068B0FB9B
:1007E000F1F0009000BF0098411E0091FAD20EE097
:1007F0007CE0C0F80090FFF7E5FD064604E0FFF757
:10080000E1FD801B022871D8686A8007F7D4207840
:1008100040075BD5E8690027C00008D4E86940F0CC
:100820008050E861E869012700F0805000905B4843
:100830000168C90511D40168834641F480710160E3
:10084000FFF7C0FD064604E0FFF7BCFD801B6428EF
:100850004CD8DBF80000C005F6D5E06801280AD0C6
:1008600008B1052813D0286A20F001002862286A00
:1008700020F0040002E0286A40F001002862E068ED
:1008800041F2883B88B1FFF79DFD064609E0286AE2
:1008900040F004002862EEE7FFF794FD811B594504
:1008A0005BD8286A8007F7D50BE0FFF78BFD06467B
:1008B00004E0FFF787FD811B59454ED8286A800761
:1008C000F7D41FB1E86920F08050E861E069A8B36F
:1008D0006968C1F38101022946D00228484606D042
:1008E000C8F86000FFF76EFD044639E035E0474682
:1008F000C8F86000FFF766FD064604E0FFF762FDFA
:10090000801B022829D828688001F7D4206AB0F516
:10091000803F05D16868A16820F400300843686012
:10092000D4E908010843696821F474110843686038
:10093000C7F860A0FFF746FD044605E023E0FFF797
:1009400041FD001B022808D828688001F7D51AE06D
:10095000FFF738FD001B022802D90320BDE8F88FFD
:1009600028688001F4D40EE00128F7D06868226A74
:1009700000F48031914204D1616A00F47010884221
:1009800001D00120EAE70020E8E700000010024063
:1009900000004242800442422000002000700040DB
:1009A00090F85100704770B5040009D0606A0025C6
:1009B00040B125616561A56294F8510040B10CE039
:1009C000012070BD6068B0F5827FF4D0E561F2E788
:1009D00084F85050204600F03FF8022084F851007F
:1009E0002068016821F040010160A088218900F49D
:1009F000827001F404410843A18901F400610843B5
:100A0000217C01F002010843217D01F0010108432E
:100A1000218B01F400710843217F01F03801084364
:100A200094F8201001F080010843218D01F4005159
:100A3000084321680860A069042101EA1040216888
:100A400048602068C16921F40061C16165650120C9
:100A500084F85100002070BD30B585B000240094AA
:100A600001940294039400681449884223D11448E5
:100A7000816941F480518161816901F4805104915F
:100A8000816941F00401816180690E4D00F004002C
:100A90000490A0200090022001900320039069465A
:100AA0002846FFF79FFB4020CDE900046946284611
:100AB0000294FFF797FB05B030BD00000030014005
:100AC00000100240000801402DE9F84F044690F85C
:100AD000500000261D469046894601280ED04FF052
:100AE000010B84F850B0FFF76DFC074694F85100F5
:100AF0004146B246012804D0022694E00220BDE817
:100B0000F88FB9F1000F74D0B8F1000F71D0032045
:100B100084F85100C4F854A0C4F83090A4F834808C
:100B2000A4F83680C4F838A0A4F83CA0A4F83EA0ED
:100B3000C4F844A0C4F840A0A068B0F5004F09D1A3
:100B40002068026822F0400202602068026842F4D5
:100B50008042026020680268520603D4026842F0B4
:100B600040020260E068B0F5006F606803D028B30F
:100B7000012923D03FE008B101291BD1206B216856
:100B80000088C86006E020688168890709D5216B64
:100B90000988C160206B801C2063E08E401EE086C7
:100BA00008E0FFF70FFCC01BA84202D3681C01D06D
:100BB00030E075B3E08E0028E5D11FE0206B21689E
:100BC0000078087306E020688168890709D5216BE1
:100BD00009780173206B401C2063E08E401EE08684
:100BE00009E0FFF7EFFBC01BA84203D3681C02D04B
:100BF00010E017E06DB1E08E0028E4D13A462946B6
:100C0000204600F0A8F908B120206065A06818B15E
:100C100006E0FFE7032606E02068C16880680090D0
:100C2000606D00B1012684F851B084F850A03046C0
:100C300065E72DE9F84F044690F8500001250A9E1B
:100C40001F4692468B464FF0000801280ED0012027
:100C500084F85000FFF7B6FB814694F851006168B4
:100C600001280CD0B1F5827F07D102E00220BDE857
:100C7000F88FA16809B9042801D00220B6E0BBF1C1
:100C8000000F27D0BAF1000F24D01FB394F8510001
:100C9000042802D0052084F8510000206065C4F8C3
:100CA00038A0E787A787C4F830B0E786A786206416
:100CB000606420680168490603D4016841F040017E
:100CC0000160E068B0F5006F606805D0E8B3012FFF
:100CD00043D079E0012089E008B1012F34D1206BA5
:100CE00021680088C860206B801C2063E08E401E55
:100CF000E08629E02068816889070DD5E18E59B129
:100D0000012D09D1216B0988C160206B801C2063F3
:100D1000E08E401EE086002520688168C9070BD060
:100D2000E18F49B1C068A16B0880A06B801CA063F3
:100D3000E08F401EE0870125FFF744FBA0EB090090
:100D4000B04201D3701C50D100E006E0E08E0028D4
:100D5000D0D1E08F0028CDD13CE0206B2168007815
:100D60000873206B401C2063E08E401EE0862BE061
:100D70002068816889070DD5E18E59B1012D09D10F
:100D8000216B09780173206B401C2063E08E401EAC
:100D9000E086002520688168C9070BD0E18F49B142
:100DA000C068A16B0870A06B401CA063E08F401E60
:100DB000E0870125FFF706FBA0EB0900B04202D354
:100DC000701C01D011E086B1E08E0028D0D1E08FF8
:100DD0000028CDD14A463146204600F0BCF838B153
:100DE00020204FF00108606508E00320804605E000
:100DF000A06818B92068C16880680090012084F854
:100E00005100002084F85000404630E710B5401EE5
:100E1000B0F1807F01D3012010BD4FF0E02460616C
:100E20000F21601700F0FEFB0020A0610720206169
:100E3000002010BDFEE700002DE9F04385B000243E
:100E40002F480094019402940394816941F01001A9
:100E50008161816901F010010491816941F02001F3
:100E60008161816901F020010491816941F00401EF
:100E70008161816901F004010491816941F00801F7
:100E800081618069012200F008001E4F5503049023
:100E900029463846FFF791FADFF86C8001221021CD
:100EA0004046FFF78AFADFF86490012202214846A3
:100EB000FFF783FA0126CDE9005602256946384638
:100EC000CDE90245FFF78EF91020CDE9000669460D
:100ED0004046CDE90245FFF785F90520CDE900043C
:100EE000694648460294FFF77DF9CDE90056694608
:100EF0004846CDE90245FFF775F905B0BDE8F08336
:100F0000001002400010014000080140000C0140A8
:100F10000E4810B50C4901604FF482714160002108
:100F20008160C1604FF400720161C0E905120822BE
:100F3000C0E90721416281620A21C162FFF733FDE6
:100F4000002800D0FEE710BD003001402400002042
:100F5000FEE77047704738B50B4600920446002202
:100F6000802100F009F8002804D0606D40F02000D6
:100F70006065032038BD00002DE9F8431E46914608
:100F800088460446089DFFF71DFA401B351AFFF7F7
:100F900019FA074625480068C0F3CB30684338E0AB
:100FA000701C37D0FFF70EFAC01BA84203D215B150
:100FB000009860B32CE02068416821F0E0014160B6
:100FC0006068B0F5827F0BD1A068B0F5004F02D009
:100FD000B0F5806F04D12068016821F04001016004
:100FE000A06AB0F5005F09D12068016821F40051C2
:100FF00001602068016841F400510160012084F81B
:101000005100002084F850000320BDE8F88300253B
:10101000401E00902068816838EA010004D000205A
:101020004845BDD10020F0E70120F9E7200000206D
:10103000704770B514460E460546017200F0DCF9A3
:1010400084224D21284600F027F9FF22242128463A
:1010500000F022F901224021284600F01DF93F222C
:101060001121284600F018F9284600F042F93246CE
:101070002221284600F010F90F21284600F0FDF843
:1010800002460D21284600F007F98D22012128464D
:1010900000F002F9002085F80A011821284600F026
:1010A000ECF8400703D503206872012070BD641E70
:1010B00003D0012000F0ADF9EFE7286800F0B5F9A2
:1010C000284600F099F9002070BD70B514460D4611
:1010D0000646017200F090F987224D21304600F05B
:1010E000DBF800222421304600F0D6F841224021CE
:1010F000304600F0D1F8304600F0FBF8F72211211D
:10110000304600F0C9F82A462221304600F0C4F8E3
:101110000E21304600F0B1F802460D21304600F0B5
:10112000BBF82221304600F0A8F8A84203D10220E3
:101130007072012070BD641EF3D1306800F075F943
:10114000304600F059F9002070BD70B504460068C3
:1011500000F061F908B304F10A004FF4807106460B
:10116000FEF7F9FF1021204600F087F802460D2116
:10117000204600F091F8A07990B11321204600F0AC
:101180007CF805462B4632460021204600F035F813
:1011900084F80A51204600F0ACF894F80A0170BDBA
:1011A000257AEFE770B51C4613460A46054600212E
:1011B00000F042F88B220121284600F06DF82868E3
:1011C00000F029F958B11221284600F056F82846B7
:1011D00000F08FF8284600F0A3F9012070BD641ECE
:1011E00003D0012000F015F9E9E7286800F01DF9A7
:1011F000284600F001F9002070BD2DE9F0411E469F
:1012000017460C460546012B14D90021286800F02A
:1012100052F92146286800F020F9002404E000F08B
:101220002EF93855641CE4B22868B442F7D3012182
:1012300000F041F9BDE8F0812DE9F0411E46174666
:101240000C460546012B16D90021286800F033F919
:1012500044F08001286800F000F9002405E0395DC1
:10126000286800F0FAF8641CE4B2B442F7D3012114
:10127000286800F020F9BDE8F08170B504460068E8
:1012800000F0EBF8206800F0FAF80546012120682C
:1012900000F011F9284670BD70B50E46044615469B
:1012A0000068002100F007F946F08001206800F096
:1012B000D4F82946206800F0D0F80121206800F019
:1012C000FAF870BD2DE9F0470446DDE908891D46AE
:1012D00016460F46006800F0F8F827716671A57190
:1012E00084F8078084F808902046BDE8F04700F0B5
:1012F00083B8FF221221FFF7CFBF00002DE9F04194
:101300001C4617460D468046069E00F000F90F2049
:1013100000F07FF8404600F078F8364905EB4500CC
:101320004218032306214046FFF786FF3148092172
:10133000C01CC25D4046FFF7AFFF0B22114640467E
:10134000FFF7AAFF23220C214046FFF7A5FF294DF6
:101350000727ED1DE81D295D805D06292BD00221A0
:1013600001EB0010C2B21D214046FFF795FF285D3A
:101370001E2107EB0010C2B24046FFF78DFFFF228F
:101380001F214046FFF788FF002220214046FFF73B
:1013900083FF0C2221214046FFF77EFF01224121DD
:1013A0004046FFF779FF0021404688F80A11BDE862
:1013B000F04100F0B5B8032101EB0010C2B21D21CD
:1013C0004046FFF769FF285D1E2107EB0010C2B2FF
:1013D0004046FFF761FF31214046FFF74EFF00F026
:1013E000F80040F0050231214046FFF755FF0C227E
:1013F0003721C1E7781C000808B5C17900918379CD
:1014000042790179FFF77AFF08BD88220121FFF7B1
:1014100043BFFEF7D5BE10B50189C06889B2FEF79B
:10142000C7FF012800D0002010BD10B504460121DF
:1014300000F041F82088002281B26068FEF7BDFF0D
:101440000120FFF7E6FF2088012281B26068FEF7E5
:10145000B4FF6420FFF7DDFF10BD13B50446002183
:1014600000F029F84FF47A73012201A9A069FFF76F
:101470002BFBA069FFF794FA0128FAD11CBD3EB5F9
:10148000044600208DF804008DF80800014620462F
:1014900000F011F84FF47A700090012302AA01A91C
:1014A000A069FFF7C6FBA069FFF77AFA0128FAD115
:1014B0009DF808003EBD012905D00022018A40693F
:1014C00089B2FEF77ABF0122F8E710B50446012180
:1014D000FFF7F1FF2088012281B26068BDE810406B
:1014E000FEF76BBF70B5054690F80A0114460E462C
:1014F000A04200D00446224605F10A013046FEF71C
:1015000011FE0020305585F80A01204670BD10B547
:10151000044608220121FFF7BFFE0021617210BDC1
:1015200010B5044609220121FFF7B6FE01216172C0
:1015300010BDFEF74DBF30B58FB028216846FEF7CD
:101540000AFE14210AA8FEF706FE01200104002469
:101550008DE8130004904FF4E010CDE90810022547
:1015600007956846FFF790F800B1FEE70F20CDE938
:101570000A054FF48060CDE90C4002210AA80E94C0
:10158000FEF7B0FF002800D0FEE70FB030BD00002E
:101590000D48016841F00101016041680B4A1140AA
:1015A000416001680A4A11400160016821F480210C
:1015B0000160416821F4FE0141604FF41F01816028
:1015C0000449C00308607047001002400000FFF8A3
:1015D000FFFFF6FE08ED00E0FEE700000FB4054B4C
:1015E00010B503A9044A029800F03CF810BC5DF85D
:1015F00014FB0000B1190008100000200FB4084BC4
:1016000010B504A902AA039800F02CF8044602A918
:10161000002000F0C8F9204610BC5DF814FB000063
:10162000A71900080907090E002804DB00F1E020D3
:1016300080F80014704700F00F0000F1E02080F8FF
:10164000141D704702E008C8121F08C1002AFAD111
:1016500070477047002001E001C1121F002AFBD132
:10166000704700002DE9FF4F8BB0884605460026E5
:1016700006E025280BD0DDE90D1290476D1C761C85
:1016800028780028F5D10FB03046BDE8F08F00244F
:10169000A146A2460122AE4900E0044315F8013FED
:1016A000203B02FA03F00842F7D128782A2810D00C
:1016B0006FF02F022878A0F13001092915D809EB25
:1016C000890102EB410144F0020400EB01096D1CA9
:1016D000F0E758F8041B5FEA010903D544F400540D
:1016E000C9F1000944F002046D1C28782E2817D196
:1016F00015F8010F44F004042A280ED06FF02F02D1
:101700002878A0F1300109290AD80AEB8A0102EBF6
:10171000410100EB010A6D1CF2E758F804AB6D1CA7
:1017200028786C280FD006DC4C2817D068280DD0FC
:101730006A2814D104E0742810D07A280FD10DE063
:1017400044F400140AE044F4801401E044F440142A
:101750006978814202D104F580146D1C6D1C2878D3
:10176000692865D006DC00288DD0632827D064283E
:1017700006D15DE06E2808D073282AD0752877D06E
:10178000DDE90D129047761CE0E0C4F30250022818
:1017900009D003280DD0D8F8001004280DD00E6011
:1017A00008F10408D2E0D8F80010F217C1E900628D
:1017B000F6E7D8F800100E80F2E70E70F0E718F8A0
:1017C000041B8DF8001000208DF80100EB4601206D
:1017D00003E058F804BB4FF0FF3061074FF00007FB
:1017E00001D40AE07F1C57450DDA8742FADB1BF86B
:1017F00007100029F6D106E07F1C8742FCDB1BF8AE
:1018000007100029F8D1DDE90D23A9EB0700814677
:10181000214600F0B1F83044C61904E0DDE90D12AC
:101820001BF8010B90477F1EF8D22146484688E0FE
:1018300058F8040BC4F302514FF00A0B032900D1EE
:1018400000B2042900D140B2002802DA40422D2122
:1018500002E0210505D52B218DF82410012104E09B
:1018600006E0E10710D02021F6E708AF089113E069
:1018700058F8040BC4F302514FF00A0B032900D1AE
:1018800080B2042900D1C0B20021EEE75946FEF72C
:101890006DFC303107F8011D0028F7D1ADEB0700D2
:1018A00000F1200B600702D524F4803401E04FF0F2
:1018B000010ADA4502DDAAEB0B0000E000208246B7
:1018C00000EB0B0108980144A9EB01000A90E0032A
:1018D00006D4DDE90D2321460A9800F04DF80644B0
:1018E0004FF0000908E009A911F80900DDE90D121F
:1018F000904709F10109761C08998945F3DBE0035B
:101900000CD5DDE90D2321460A9800F035F8064490
:1019100004E0DDE90D1230209047761CBAF1000199
:10192000AAF1010AF5DC05E0DDE90D1217F8010B5B
:101930009047761CBBF10001ABF1010BF4DC0A9877
:101940002146DDE90D2300F005F806446D1C97E6FD
:10195000092801002DE9F041044600251E461746DE
:10196000880404D405E039462020B0476D1C641E6D
:10197000F9D52846BDE8F0812DE9F041044600255F
:101980001E469046C80301D5302700E02027880472
:1019900004D505E041463846B0476D1C641EF9D5B4
:1019A0002846BDE8F0810A68531C0B601070704730
:1019B00005490968C90105D54FF060410A68002A48
:1019C000FCD0087070470000FCED00E01CB5FEF78D
:1019D00007FDFFF7B0FDFFF72FFAFFF799FA504D1B
:1019E00004212846FEF7E4FC4E4C012820605ED01E
:1019F0004DA0FFF7F3FD012204212846FEF7DDFC90
:101A00004D480121C0E902154C4941611021016195
:101A10000221C0E90015A0F158018161743108600C
:101A200047A0FFF7DBFD0A210320CDE90001424872
:101A30000223012200211C30FFF744FC47A0FFF7DE
:101A4000CDFD20684FF4FA6501283B482A464FF047
:101A5000100100F11C002FD0FFF7EBFA6060206846
:101A600001282CD045A0FFF7B9FD4FF47A70FEF79E
:101A7000A7FB45A0FFF7B2FD2F481C30FFF765FB21
:101A80000146606046A0FFF7A9FD606800280ADDF6
:101A90004749C2B2A1F58670FFF724FD444A45A02C
:101AA0006168FFF79BFD48A0FFF798FDD7E74CA0C2
:101AB000FFF794FD00229FE7FFF707FBCEE74CA05E
:101AC000FFF78CFD40F6C410FEF77AFB4CA0FFF741
:101AD00085FD51A13648A268FFF790FDC1B2E060D4
:101AE00015482A461C30FFF7F0FA014660604DA009
:101AF000FFF774FD2E494EA0FFF770FD2C49227BA5
:101B00002B46A1F58670FFF74DFB6060A168491C6C
:101B1000A16001464AA0FFF761FD4EA0C4E70000A6
:101B2000000C0140000000204D6F64653A20536CAA
:101B30006176650D0A0000007C000020000801406D
:101B4000436F6E6669677572696E67204C6F52618C
:101B5000206D6F64756C650D0A000000446F6E6542
:101B600020636F6E6669677572696E67204C6F528D
:101B7000614D6F64756C650D0A000000536C6176F1
:101B800065202E2E2E0D0A00526563656976696EFA
:101B900067207061636B6167652E2E2E0D0A000051
:101BA00052656365697665643A2025640D0A000014
:101BB000A4010020436F6E74656E7420282564298B
:101BC0003A2025730D0A00005061636B6167652040
:101BD0007265636569766564202E2E2E0D0A0000FD
:101BE0004D6F64653A204D61737465720D0A000093
:101BF0004D6173746572202E2E2E0D0A00000000B8
:101C000053656E64696E67207061636B6167652EF2
:101C10002E2E0D0A0000000048656C6C6F202564B4
:101C200000000000456E7472793A2025640D0A00A8
:101C300053656E64696E672025730D0A000000000D
:101C40005472616E736D697373696F6E3A202564A7
:101C50000D0A00005061636B6167652073656E74E7
:101C60002E2E2E0D0A0000000000000000000000D3
:101C700001020304060708096C8000FFFCF9F60660
:101C80000708090A0B0C00010203040506070809EE
:101C9000B01C0008000000202400000044160008CA
:101CA000D41C000824000020C405000054160008BD
:101CB0000000000000000000000000000000000024
:101CC0000000000001000000100000000000000003
:041CD00000A24A0420
:04000005080000ED02
:00000001FF
